:020000040800F2
:100000006807002089010008BF100008E50E0008FD
:10001000BD1000088F020008C7140008000000008F
:100020000000000000000000000000005F11000858
:1000300091020008000000005D1100082D12000868
:10004000A3010008A3010008A3010008A301000800
:10005000A3010008A3010008A3010008A3010008F0
:10006000A3010008A3010008A3010008A3010008E0
:10007000A3010008A3010008A3010008A3010008D0
:10008000A3010008A3010008A3010008A3010008C0
:10009000A3010008A3010008A3010008A3010008B0
:1000A000A3010008A3010008A3010008A3010008A0
:1000B000A3010008A3010008A3010008A301000890
:1000C000A3010008A3010008A3010008A301000880
:1000D000A3010008A3010008A3010008A301000870
:1000E000A3010008A3010008A301000800F002F822
:1000F00000F03AF80AA090E8000C82448344AAF188
:100100000107DA4501D100F02FF8AFF2090EBAE885
:100110000F0013F0010F18BFFB1A43F0010318473B
:10012000D81C0000F81C0000103A24BF78C878C121
:10013000FAD8520724BF30C830C144BF04680C60ED
:10014000704700000023002400250026103A28BF35
:1001500078C1FBD8520728BF30C148BF0B60704739
:100160001FB51FBD10B510BD00F058F81146FFF7C0
:10017000F7FF01F00FFA00F076F803B4FFF7F2FF93
:1001800003BC00F07DF8000009488047094800479B
:10019000FEE7FEE7FEE7FEE7FEE7FEE7FEE7FEE737
:1001A000FEE7FEE704480549054A064B7047000094
:1001B0008F120008ED000008680100206807002089
:1001C00068030020680300204FF0000200B51346CA
:1001D00094469646203922BFA0E80C50A0E80C5067
:1001E000B1F12001BFF4F7AF090728BFA0E80C5018
:1001F00048BF0CC05DF804EB890028BF40F8042B11
:1002000008BF704748BF20F8022B11F0804F18BF7D
:1002100000F8012B7047704770477047754600F033
:100220002BF8AE4605006946534620F00700854688
:1002300018B020B5FFF7B6FFBDE820404FF000062C
:100240004FF000074FF000084FF0000B21F00701BE
:10025000AC46ACE8C009ACE8C009ACE8C009ACE801
:10026000C0098D46704710B50446AFF300802046A4
:10027000BDE81040FFF781BF00487047080100202B
:1002800001491820ABBEFEE7260002007047FEE7DA
:100290007047000070B5044600F008F90546601C80
:1002A00002D004480078044400F000F9401BA0424A
:1002B000FAD370BD400000202DE9F84FDFF8B89167
:1002C000002409F1040A0AF1040B23460F270BF15D
:1002D000040EC9E00125A5402A40AA427DD1674EFF
:1002E000D1F804C0ACEB0608B44532D014DCBCF144
:1002F000030F3AD009DCBCF1000F2AD0BCF1010F8A
:100300001CD0BCF1020F31D11DE0BCF1110F17D090
:10031000BCF1120F2AD119E0B8F5881F19D006DCFC
:10032000B8F5803F15D0B8F5801F1FD111E0B8F5A2
:10033000001F0ED0B8F5041F18D10AE0CB6815E0F5
:10034000CB681B1D12E0CB6808330FE0CB680C3381
:100350000CE08B682BB1012B4FF0080303D04561F3
:1003600004E0042302E0056100E00023FF2A01D835
:10037000064601E000F104064FEA840501D9A5F123
:100380002005D6F8008007FA05FC28EA0C0803FAD5
:1003900005F548EA0508C6F800804D68ED0062D50D
:1003A000374DAE6946F00106AE61AD6924F0030633
:1003B00005F001050095334D06EB050CDCF80850FF
:1003C000A607360F07FA06F825EA0805DFF8B88011
:1003D000404503D14FF0000817E044E0DFF8AC805F
:1003E000404502D14FF001080FE0DFF8A4804045FE
:1003F00002D14FF0020808E0DFF89880404502D1B2
:100400004FF0030801E04FF0040808FA06F848EA44
:100410000508CCF808804D68D9F80060ED034D461A
:1004200001D5164300E096432E604D68DAF800606F
:10043000AD03554601D5164300E096432E604D6846
:10044000DBF80060ED025D4601D5164300E09643FF
:100450002E604D68DEF80060AD02754601D516438A
:1004600000E096432E60641C0D682A46E5407FF448
:1004700031AFBDE8F88F000000040140000011100A
:10048000001002400000014000080140000C014043
:1004900000100140001401408068084000D0012095
:1004A00070470AB1016170470904FBE701488068A1
:1004B0007047000040000020024881680278114423
:1004C0008160704740000020074810B5016841F086
:1004D00010010160032000F067F8002000F006F82A
:1004E00000F024F8002010BD0020024070B50D4D32
:1004F00004464FF47A712878B1FBF0F00A49096894
:10050000B1FBF0F000F0BEFA48B9102C07D200227F
:100510002146501E00F028F800206C6070BD0120BC
:1005200070BD0000400000204C0000200C4808B5C1
:10053000816941F001018161816901F0010100914E
:10054000C16941F08051C161C06900F080500090E4
:100550000448416821F0E06141F00071416008BD4C
:100560000010024000000140F0B40E4B1B680C4626
:10057000C3F30223C3F10705042D00D90425191D77
:10058000072901D2002300E0DB1E012606FA05F14F
:10059000491E214099409E40761E16403143F0BCD2
:1005A00000F092BF0CED00E0064900F00702086879
:1005B0004FF6FF03184040EA0220034A1043086048
:1005C000704700000CED00E00000FA052DE9F0474F
:1005D0000F46050061D0434E306800F00700B84276
:1005E00009D2306820F0070038433060306800F0EE
:1005F0000700B84251D128683B4C810712D540070B
:1006000003D5606840F4E06060602878000703D597
:10061000606840F4605060606068A96820F0F00095
:10062000084360602878C00728D06868012810D087
:100630002168022810D0890700292EDA616821F08C
:10064000030101436160FFF731FF804641F28839C1
:100650000DE021688903EFE78901EDE7FFF726FF49
:10066000A0EB0801494502D90320BDE8F087606886
:10067000696800F00C00B0EB810FEFD1306800F03A
:100680000700B8420BD9306820F0070038433060CB
:10069000306800F00700B84201D00120E5E7287873
:1006A000400705D56068E96820F4E06008436060B1
:1006B0002878000706D56068296920F4605040EA70
:1006C000C100606000F018F86168084AC1F30311C6
:1006D000515CC8400649086006480068FFF706FFFD
:1006E0000020C2E70020024000100240E61D000882
:1006F0004C0000204400002012A185B00FC98DE8F5
:100700000F0014A0144A006804905168134801F0C7
:100710000C03042B10D0082B0ED1C1F38343C90363
:100720001DF803000AD5516804AAC1F34041515C89
:100730000A4A5043B0FBF1F005B0704708494843FE
:10074000FAE7000002030405060708090A0B0C0D6E
:100750000E0F1010010200000010024000127A007B
:1007600000093D002DE9F84F040070D02078C04DFD
:10077000C00749D06868C0F38100012807D06868C5
:10078000C0F38100022809D16868C00306D5286833
:10079000800339D560680028E7D035E06068B0F59F
:1007A000803F0BD010B1B0F5A02F11D0286820F4F5
:1007B00080302860286820F4802002E0286840F417
:1007C00080302860606890B1FFF770FE06460AE04E
:1007D000286840F480202860F0E700BFFFF766FE3D
:1007E000801B642873D828688003F7D50CE0FFF7D6
:1007F0005DFE064605E000BFFFF758FE801B64283B
:10080000F0D828688003F7D420789A4E80074FF0FC
:1008100001094FF0000839D5686810F00C0F07D0B7
:100820006868C0F38100022809D16868C00306D453
:100830002868800714D52069012808D110E02069B4
:10084000B0B1C6F80090FFF731FE074605E00AE1B7
:10085000FFF72CFEC01B0228C4D828688007F7D5F4
:100860002868616920F0F80040EAC10028600DE0C6
:10087000C6F80080FFF71AFE074604E0FFF716FEF1
:10088000C01B022823D828688007F7D420780007E7
:100890002CD57948A169D9B1C0F80090FFF706FEC0
:1008A000074604E0FFF702FEC01B02280FD8686A63
:1008B0008007F7D571484FF4FA510068B0FBF1F0AA
:1008C000009000BF0098411E0091FAD20EE080E037
:1008D000C0F80080FFF7EAFD074604E0FFF7E6FDF9
:1008E000C01B022875D8686A8007F7D420784007B3
:1008F00060D5E8690027C00008D4E86940F080505E
:10090000E861E869012700F0805000905C480168C8
:10091000C90513D40168834641F480710160FFF773
:10092000C5FD824606E000BFFFF7C0FDA0EB0A0050
:1009300064284ED8DBF80000C005F5D5E068012832
:100940000AD008B1052813D0286A20F001002862D7
:10095000286A20F0040002E0286A40F001002862C2
:10096000E06841F2883B98B1FFF7A0FD82460BE0BA
:10097000286A40F004002862EEE700BFFFF796FD0A
:10098000A0EB0A0159455AD8286A8007F6D50CE031
:10099000FFF78CFD824605E0FFF788FDA0EB0A011A
:1009A00059454CD8286A8007F6D41FB1E86920F071
:1009B0008050E861E06988B36968C1F38101022968
:1009C00044D00228C6F8608004D0FFF76FFD0446CB
:1009D00038E034E0FFF76AFD074604E0FFF766FD04
:1009E000C01B02282BD828688001F7D4206AB0F5F4
:1009F000803F05D16868A16820F400300843686032
:100A0000D4E908010843696821F474110843686057
:100A1000C6F86090FFF74AFD044606E025E000BFF7
:100A2000FFF744FD001B022809D828688001F7D58C
:100A30001BE000BFFFF73AFD001B022802D903208C
:100A4000BDE8F88F28688001F4D40EE00128F7D0C3
:100A50006868226A00F48031914204D1616A00F42E
:100A60007010884201D00120EAE70020E8E700008A
:100A70000010024000004242800442424C0000202C
:100A80000070004010B5401EB0F1807F01D30120FE
:100A900010BD4FF0E02460610F21601700F014FDDD
:100AA0000020A06107202061002010BD70B590F8E3
:100AB0003C20012A26D0012480F83C40022280F804
:100AC0003D2003685A689D6822F070060A68324328
:100AD0005A600D4B02689A4208D0B2F1804F05D09F
:100AE0000A4B9A4202D00A4B9A4204D1496825F037
:100AF00080031943916080F83D40002180F83C104C
:100B0000084670BD022070BD002C0140000400406A
:100B10000008004010B5040003D094F83D0010B167
:100B200007E0012010BD002084F83C00204600F0C2
:100B30001FF8022084F83D00211D206800F0A8FB6A
:100B4000012084F8460084F83E0084F83F0084F8D1
:100B5000400084F8410084F8420084F8430084F89F
:100B6000440084F8450084F83D00002010BD0000DA
:100B700008B50C4A01680C48914207D1C16941F09F
:100B80000201C161C06900F0020009E0074A914218
:100B900007D1C16941F00401C161C06900F00400DE
:100BA000009008BD00040040001002400008004012
:100BB00090F83D10012901D001207047022180F8F2
:100BC0003D1000680B49884208D0B0F1804F05D035
:100BD0000949884202D00949884204D1816801F05C
:100BE0000701062903D0016841F0010101600020DE
:100BF00070470000002C0140000400400008004045
:100C000070B5044690F83C00012817D0012584F8FF
:100C10003C50022084F83D002068826822F0770270
:100C200022F47F4282600868502830D00DDC2028F2
:100C30004DD005DC98B310283BD148E0022070BDB0
:100C4000302844D0402834D139E0602828D070289A
:100C500006D0B0F5805F2CD0B0F5005F29D10AE056
:100C6000CB68D1E90121206800F055FB206881683C
:100C700041F0770109E0CB68D1E90121206800F05B
:100C80004AFB2068816841F48041816011E0CA68B4
:100C90004968206800F0F4FB5021206807E016E066
:100CA000CA684968206800F0FCFB6021206800F0F9
:100CB0003CFB84F83D50002084F83C0070BDCA68BD
:100CC0004968206800F0DCFB40212068EFE72268DB
:100CD00001461046EBE7000000B585B00021009109
:100CE00001910291039100680B49884212D10B488F
:100CF000816941F0080181618069694600F008005E
:100D000004904FF47070009002200190039004480A
:100D1000FFF7D2FA05B000BD000800400010024005
:100D2000000C014070B5044690F83C000D460128C7
:100D30000AD0012084F83C0042B1042A18D0082AC5
:100D40002AD00C2A4DD139E0022070BD206800F075
:100D5000F5FA2068816941F00801816120688169A4
:100D600021F004018161206881692A69114311E041
:100D7000206800F00BFB2068816941F4006181610B
:100D80002068816921F480618161206881692A6914
:100D900041EA0221816124E0206800F023FB206801
:100DA000C16941F00801C1612068C16921F00401F5
:100DB000C1612068C1692A69114311E0206800F00F
:100DC0003DFB2068C16941F40061C1612068C169CF
:100DD00021F48061C1612068C1692A6941EA022168
:100DE000C161002084F83C0070BD10B5040003D040
:100DF00094F83D0010B107E0012010BD002084F8F8
:100E00003C00204600F01EF8022084F83D00211D21
:100E1000206800F03DFA012084F8460084F83E0086
:100E200084F83F0084F8400084F8410084F84200D0
:100E300084F8430084F8440084F8450084F83D00B9
:100E4000002010BD7047000010B50446022249B1D1
:100E500004290ED0082913D094F84100012816D097
:100E6000012010BD94F83E000128F9D184F83E20FD
:100E70000FE094F83F000128F2D184F83F2008E009
:100E800094F840000128EBD184F8402001E084F878
:100E900041200122206800F031FA0F492068884281
:100EA00003D1426C42F4004242642068884208D078
:100EB000B0F1804F05D00949884202D008498842E4
:100EC00004D1816801F00701062903D0016841F0CF
:100ED00001010160002010BD002C01400004004011
:100EE00000080040FEE7000070B586B000242448EA
:100EF0000094019402940394816941F0100181618E
:100F0000816901F010010491816941F02001816142
:100F1000816901F020010491816941F0040181613E
:100F2000816901F004010491816941F00801816146
:100F30008069012200F00800124E550304902946F2
:100F40003046FFF7AEFA0220CDE9024000950125B8
:100F5000694601953046FFF7AFF9CDE90054029597
:100F6000094D69462846FFF7A7F9FE20CDE90004A0
:100F7000694628460294FFF79FF906B070BD00004D
:100F800000100240001001400008014010B586B07A
:100F90000024174800940194029403940494134984
:100FA000059401604721C0E901144FF6FF71C0E9C3
:100FB00003148461FFF7AEFD08B172B6FEE74FF48B
:100FC0008050009069460A48FFF71AFE08B172B6D1
:100FD000FEE7049404A906480594FFF767FD00287E
:100FE00001D072B6FEE706B010BD0000000400405C
:100FF0007800002010B58EB000240794089409945E
:101000000A940B941C2168460C94FFF7DDF82A48DB
:10101000284901604F21C0E9011440F2E731C0E9DD
:1010200003148461FFF776FD08B172B6FEE74FF452
:101030008050079007A92048FFF7E2FD08B172B67B
:10104000FEE71D48FFF7D1FE08B172B6FEE70B942C
:101050000BA919480C94FFF729FD08B172B6FEE7F9
:101060006020CDE9000402940022694612480494ED
:10107000FFF758FE08B172B6FEE7042269460E4833
:10108000FFF750FE08B172B6FEE7082269460A482B
:10109000FFF748FE08B172B6FEE70C226946064823
:1010A000FFF740FE08B172B6FEE70348FFF714FEF3
:1010B0000EB010BD00080040C0000020FEE7FEE7B3
:1010C0002DE9F04100F04CF8204C49F64041081A57
:1010D000606300F0F3FA606B20600021052000F0EF
:1010E00027FA60600646656BE068281AA06000F089
:1010F00021FD174900F036FD0746304600F01AFD85
:10110000144900F02FFD0646206800F013FD124937
:1011100000F028FD314600F08FFC394600F08CFCD1
:1011200000F0ECFC00F12D01C0F12D02E560322948
:1011300000DD3221322A00DD322265622163C4E9FA
:101140000A02BDE8F041104600F00ABA0000002093
:101150000000204152491D393480B739704770472B
:101160002DE9F04141F2883000F0D6F9DFF8B08087
:1011700000252C4602214046FFF78EF90127294E13
:10118000012803D142F21075012477610421404601
:10119000FFF782F920B944F620600544641C3761EA
:1011A000082147464046FFF777F918B947F2305013
:1011B0000544641C10213846FFF76EF918B949F64A
:1011C00040400544641C20213846FFF765F918B9F2
:1011D0004CF250300544641C4021B8463846FFF7B5
:1011E0005BF9002720B94EF660200544641C376186
:1011F00080214046FFF750F9012803D10A48641CBA
:101200000544776195FBF4F0C6E9074024B1B76166
:1012100095FBF4F0BDE8F081B069401CB061F7E7E0
:10122000000801400000002070110100FFF744B9E0
:1012300030B58FB028216846FEF7C6FF14210AA8F2
:10124000FEF7C2FF01210804CDE90010002402943A
:1012500002250491CDE907504FF4E010099068464B
:10126000FFF780FA08B172B6FEE70F20CDE90A0554
:101270004FF48060CDE90C4002210AA80E94FFF7DC
:10128000A5F9002801D072B6FEE70FB030BD704757
:10129000F0B50268164B174C174D4FF08047984237
:1012A00005D0B84203D0A04201D0A84203D122F019
:1012B00070064A683243984205D0B84203D0A04233
:1012C00001D0A84203D122F44074CA6822434C6979
:1012D00022F08002224302608A68C2620A68826247
:1012E000984201D10969016301214161F0BD00000B
:1012F000002C0140000400400008004010B501F03F
:101300001F030121046A99408C430462016A9A40D8
:101310001143016210BD10B5846842EA032224F42F
:101320007F440A432243826010BD826822F070022B
:101330000A4342F0070181607047000030B5026A3D
:1013400022F001020262026A4368846924F0730594
:101350000C682C4322F002058A682A430A4DA842F1
:101360000BD122F00805CA6823F440732A434D6963
:1013700022F004021D438B692B434360846149685A
:101380004163026230BD0000002C014030B5026AAA
:1013900022F010020262026A436884690D6824F434
:1013A000E64444EA05248D6822F0200242EA051250
:1013B0000B4DA8420ED1CD6822F0800242EA051200
:1013C0004D6923F4406343EA85038D6922F04002AE
:1013D00043EA85034360846149688163026230BDEA
:1013E000002C014030B5026A22F480720262036A66
:1013F0004268C46923F4007324F073050C682C431D
:101400008D6843EA05230C4DA8420ED1CD6823F424
:10141000006343EA05234D6922F4405242EA051273
:101420008D6923F4806342EA05124260C461496811
:10143000C163036230BD0000002C014030B5026A78
:1014400022F480520262046A4268C3690D6823F480
:10145000E64343EA05238D6824F4005444EA053446
:10146000064DA84204D14D6922F4804242EA851219
:101470004260C36149680164046230BD002C0140D0
:1014800010B5036A046A24F001040462846924F03C
:10149000F00444EA021423F00A020A43846102625F
:1014A00010BD10B5036A23F0100303628369046A58
:1014B00023F4704343EA023224F0A00343EA01110B
:1014C0008261016210BDFEE70907090E002804DBF6
:1014D00000F1E02080F80014704700F00F0000F1E8
:1014E000E02080F8141D70472DE9F0410024084FDA
:1014F000084E022505FA04F081B23846FEF7CCFF0B
:101500003055641CE4B2072CF4D3BDE8F081000030
:101510000008014038000020044900220B685A628C
:1015200009684A6A8242FCD37047000078000020B4
:1015300030B5044600200246084B0BE0012905D1D6
:1015400053F82250002D01DA401B02E053F82250DC
:101550002844521CA242F1DB30BD000050000020A4
:1015600070B506460A48C06968B1084600F013F92C
:1015700004460D46304600F00EF922462B46BDE8E3
:10158000704000F03FB8BDE8704000F0A7B8000020
:1015900000000020FEF798FFFFF74AFEFFF7A4FCCB
:1015A000FFF7F4FCFFF726FD1548FFF701FB144891
:1015B00000214830FFF748FC114804214830FFF76C
:1015C00043FC0F4808214830FFF73EFC0C480C2133
:1015D0004830FFF739FC0A4800214830026851635F
:1015E000026891630268D163006801644FF4FA6095
:1015F000FEF750FEFFF764FDFFF776FFFAE7000005
:10160000780000202DE9F05F4FF0000914461D46D8
:1016100006460F46DFF898B0DFF89880DFF898A00C
:101620004A464B4600F0CEF80CD2D8F80010C1F86C
:10163000349000225B463046394600F0FFF800F057
:101640007DF80BE0002253463046394600F0F6F8AC
:1016500000F074F8D8F8002050634846D8F800101D
:101660008863002213462046294600F0ABF80ED2CC
:10167000D8F800104646C1F83C9000225B46204650
:10168000294600F0DBF800F059F831680DE000223F
:1016900053462046294600F0D1F800F04FF8D8F81C
:1016A0000020D063D8F8001048460864BDE8F09FD9
:1016B000000024C0C000002000002440064A092188
:1016C00002EB810353F8043C42F82130491E002903
:1016D000F6DC106070470000500000200C4830B469
:1016E0008169406919290BDD0A490B4C0AE00B4658
:1016F0000020214601E02346002030BCFFF782BFD6
:101700000649074C01284FF00002F4D1EFE7000032
:10171000000000200000494000003EC0000044409E
:10172000000034C0491058BFC1F140415B1058BFA0
:10173000C3F140438B42EFF3008070474FEA1153EF
:10174000A3F58063D3F11E03A8BFD3F1200C08DBFF
:101750004FF0004242EAC12252EA505232FA03F0FC
:10176000704709420BD4102BC4BF0020704703F50B
:10177000787CBCF1FF3F05D04FF0FF3070474FF051
:101780000000704770B500F003F900BF4992248053
:1017900000207047F0E710F0004248BF4042B0FA26
:1017A00080F310FA03F10AD0C3F11D0303F580633F
:1017B0004FEA415002EB035202EBD12170474FF048
:1017C0000000704751EA030C17D41CF5801F58BF66
:1017D000BCF5801F00F10680994218BF704708BF12
:1017E0009042704707D711F5801F58BF13F5801F2F
:1017F00019D499427047894270471CF5801F08D55B
:10180000BCF5801FF7D58B4218BF704708BF8242D6
:1018100070474FF4001C1CEB410F38BF1CEB430F0B
:1018200001D28B42704770B500F0B2F892244900A3
:101830004FF000514FF08053FFF774BFDFF848C1FD
:1018400070B51CEA111E1EBF1CEA13159EEA0C0F90
:1018500095EA0C0F00F06F8081EA030423EA4C1331
:101860004EEAD47E21EA4C1141F4801143F48013F6
:10187000AE44A1FB024CA0FB0365AEF17F7E36199E
:1018800055EB0C05A1FB034C4CF10003A0FB021C23
:1018900016EB0C06654153F10003094218BF46F0F0
:1018A000010613F4007F0BD14FEA03314FEA0530F4
:1018B000340341EA155140EA16506FF003020AE082
:1018C0004FEAC3214FEAC520F40241EA555140EAEC
:1018D00056506FF0020202EB2E4201EB025585EAF0
:1018E000CE710AD05FEA440C18BF24F0004450F1D6
:1018F000000041F1000120EAD47040F2FE7C624514
:1019000000D270BDA84214BF4FF080444FF0404455
:10191000002E08BF0024BEF1806FA8BFA1F1C04116
:10192000BDE8704080F282804FF0000001F1C041BC
:1019300001F0004170479EEA0C0F0CEA131518BF26
:1019400095EA0C0F06D04FF0000081EA030E0EF06E
:10195000004170BD00F01CF88900013E00F007B89E
:1019600000F009B84FEA430C5FEA5C5C08D081EAFA
:10197000030100F05BB84FEA410C5FEA5C5CF6D112
:101980004FF00000014970470000FF070000F87F9A
:101990000EF1020E2EF0030E5EF8046B364205D4F3
:1019A000012A43EB030515F5001F12D8012841EB6E
:1019B000010C1CF5001F0CD80ED14FEAD17C15F597
:1019C000001F0CEB4C0C0CF1020C08BF4CEBD37C51
:1019D00004E04FF0080C01E04FEAD37C0CEB4C051F
:1019E00026FA05F606F00706B6F1040C06D20EEB51
:1019F000860CBDE870404CF0010C6047DFE80CF04D
:101A0000090B02024FF000414FF00000A1F5002148
:101A100070BD19461046012851EB010418BFD4F5DA
:101A2000001484BF002001F0004170BD0808A0F53B
:101A300000114FEA3101704790EA010F48BF81F071
:101A4000004100F16281421A3CBF801A89184FEAB6
:101A5000D0524FF07F4C1CEA410FA2EBD15318BF7C
:101A60009CEA026F00F03B804FF0004C4CEA0020F3
:101A70004CEA012121FA03FC10EB0C0C1ED202F1FE
:101A8000FF325FEA1C2040EBC25038BF70471CF0A9
:101A90007F0F4FEA400C18BFBCF17F4F38BF704733
:101AA000C3F12003994008BF20F00100BCF17F4F33
:101AB00038BF7047A0F1C04000F01BB94FEA3C00AE
:101AC000000A40EBC25028BF1CF0FF0F4FEA400C49
:101AD000E6D018BFBCF17F4F38BF7047EAE79CEAF9
:101AE000026F05D010EA5C0F08BF00F0004070479D
:101AF00010B500F0B8F800BF64FBBE3E41000B0E0D
:101B0000D3F19E0208D950F400034FEA032323FACD
:101B100002F048BF4042704710B500F0A4F800BF83
:101B200049922480002070476FF0004282EA200032
:101B30007047000010F0004148BF4042B0FA80F307
:101B400010FA03F2C3F19D030BD051EAC35101EB2C
:101B50001220530638BF704700F1010008BF20F083
:101B6000010070474FF47F0C1CEAD0121EBF1CEA24
:101B7000D11392EA0C0F93EA0C0F00F0478090EA21
:101B8000010F48BF42F480724FF0004C4CEA002035
:101B90004CEA012102EB0302A0FB0113A2F50002B3
:101BA000002918BF43F001035B0028BF4FEA33034D
:101BB00042EB22425FEA132C4CEBC2502EBFBCEB2F
:101BC000436FB2F57C0F70474FEA036CBCF1004FD6
:101BD00008BF20F00100B2F57C0F38BF70470BD56D
:101BE00082F0FF0212F5803FC8BF704700F1C0408D
:101BF000D8BF00F00040704700F5000C5FEA4C0CC5
:101C000048BF7047B0F1C04000F073B890EA010FD0
:101C10000CEAD11348BF42F48072624538BF634575
:101C200004D280EA010000F00040704710B500F0D7
:101C30001AF800BF8900013E00F007B800F009B8AB
:101C40005FEA410C5FEA1C6C08D080EA010000F0FA
:101C500050B85FEA400C5FEA1C6CF6D14FF00040D0
:101C6000A0F5800070470EF1020E2EF0030E5EF814
:101C7000044B244204D44FEA4102B2F17F4F11D801
:101C80004FEA4003B3F17F4F0CD80ED14FEAD07C1E
:101C9000B2F17F4F0CEB4C0C0CF1020C08BF4CEB7B
:101CA000D17C04E04FF0080C01E04FEAD17C0CEB52
:101CB0004C0324FA03F404F00704B4F1040C06D234
:101CC0000EEB840CBDE810404CF0010C6047DFE8DF
:101CD0000CF0070802024FF00040A0F5800010BD94
:101CE0000846420018BFD2F1807288BF00F0004061
:101CF00010BDFF2141EAD050C005704790EA010FA6
:101D000048BF81F000413FF59EAE421A04D882F0F0
:101D10000042A0EB020011444FEAD0524FF07F4C3A
:101D20001CEA410FA2EBD15318BF9CEA026F4AD0C4
:101D30004FF0004C4CEA00204CEA012121FA03FC50
:101D4000B0EB0C0C0FD412F0FE0F36D05FEA4C0053
:101D50001DD5001240EBC25038BF70471CF03F0F3A
:101D600018BF70470BE0A2F101025FEA1C2040EBB4
:101D7000C25038BF70471CF07F0F18BF7047C3F1C7
:101D80002003994014BF401E20F0010070478008D6
:101D90004FEA122308BF7047B0FA80FCA2EB0C0296
:101DA000CCF1280C60FA0CF093EA122F04BF00EB80
:101DB000C25070474FEAC3707047130A5FEADC10E5
:101DC00008BF7047F6E79CEA026F04D010EA5C0F88
:101DD00008BF0020704710B5FFF745FF40DFF63E13
:101DE00081F0004070470000000000000000010288
:101DF0000304060708090000181E00080000002060
:101E00005000000028010008681E00085000002053
:101E10001807000044010008000000000000000056
:101E200000000000000000000000000000000000B2
:101E300000000000000000000000000000000000A2
:101E40000000000000000000000000000000000092
:101E50000000000000000000010000001000000071
:081E6000000000000024F40062
:04000005080000ED02
:00000001FF
